:100000000C9459000C9481000C9481000C94810094
:100010000C9481000C9481000C9481000C940002DB
:100020000C9481000C9481000C9481000C9481004C
:100030000C9481000C9481000C9481000C9481003C
:100040000C9431020C9481000C9450040C948204A2
:100050000C9481000C9481000C9481000C9481001C
:100060000C9481000C94810001020408102040804F
:1000700001020408102001020408102004040404F2
:100080000404040402020202020203030303030342
:1000900000000000230026002900000000002500C9
:1000A00028002B0000000000240027002A00A500E3
:1000B000B20411241FBECFEFD8E0DEBFCDBF11E0E8
:1000C000A0E0B1E0E2E9FCE002C005900D92AA34A4
:1000D000B107D9F722E0AAE4B1E001C01D92A53032
:1000E000B207E1F710E0C2EBD0E004C02297FE01B6
:1000F0000E944306CE3AD107C9F70E94F6040C9439
:1001000047060C94000026E040E052EC61E070E00D
:1001100088E691E00C94EE0300E0006600937C001A
:1001200007EC00937A0020917A002660789420935F
:100130007A0020917A0024FFFCCF80917800909182
:100140007900882F992F0895089528EC30E04CE02D
:100150006CE08BE491E00C940B010F931F93CF9311
:10016000DF93EC0160E071E088E691E00E944305D6
:10017000CE010E948C00EC0169E171E088E691E01B
:100180000E94430562E370E080E090E00E949E02DE
:100190008BE491E00E94D1018C016AE271E088E673
:1001A00091E00E94430560E371E088E691E00E94DF
:1001B0004305C80169E370E00E940B064AE050E085
:1001C00088E691E00E94040662E371E088E691E02F
:1001D0000E94430588E691E00E94670364E371E0B2
:1001E00088E691E00E94430560E371E088E691E0D3
:1001F0000E9443054AE050E0BE0188E691E00E947B
:10020000EF0562E371E088E691E0DF91CF911F9105
:100210000F910C944305CF93DF93DC0170E0FB0159
:10022000E859FF4FE4911496EC931497842F90E0D3
:10023000FC01E859FF4FE4911596EC93159764582B
:100240007F4FFB01C491D0E0CC0FDD1FC656DF4FBE
:10025000FE014591549117965C934E931697FC01BD
:10026000E458FF4F849190E0880F991F80579F4F6B
:10027000FC01459154911B965C934E931A97FB0198
:100280006491E62FF0E0EE0FFF1FEC55FF4F8591D4
:10029000949119969C938E931897C901253FF1E08C
:1002A0003F0714F084EF91E049E3489F9001499F94
:1002B000300D1124245E3F4F1D963C932E931C97C6
:1002C000DF91CF9108950F931F93CF93DF93EC01AC
:1002D000E885F98580819C81892B8083EE81FF816F
:1002E00090818C8180958923808384E090E00E94B6
:1002F000C602EE81FF8180819C81892B80838AE008
:1003000090E00E94C602EE81FF8190818C818095F1
:1003100089238083E885F98590818C818095892364
:1003200080830E947B02605B794B8F4F9F4F6E876B
:100330007F87888B998BEA85FB8580819D818923C6
:1003400059F00E947B020E851F852889398906177E
:1003500017072807390778F7EA85FB8580819D8193
:10036000892369F40E947B020E851F8528893989BB
:10037000061717072807390778F780E00DC00E9495
:100380007B022C853D85620F731F811D911D6E8739
:100390007F87888B998B81E0DF91CF911F910F919F
:1003A00008950F931F93CF93DF93EC010E94630195
:1003B000882389F0EA85FB8580819D81892371F0FE
:1003C0000E947B020E851F85288939890617170729
:1003D0002807390778F720E030E00CC00E947B0244
:1003E0002C853D85255031094E855F85241B350BB5
:1003F000260F371FC901DF91CF911F910F910895EB
:100400001F920F920FB60F9211242F933F934F9389
:100410005F936F937F938F939F93AF93BF93EF936C
:10042000FF93E0915D01F0915E01309709F009952D
:10043000FF91EF91BF91AF919F918F917F916F91BC
:100440005F914F913F912F910F900FBE0F901F9092
:1004500018958AE491E00C9483008AE491E00C946E
:10046000AD001F920F920FB60F9211242F933F935E
:100470008F939F93AF93BF9380916001909161019F
:10048000A0916201B091630130915F0123E0230FDD
:100490002D3720F40196A11DB11D05C026E8230FBC
:1004A0000296A11DB11D20935F018093600190937E
:1004B0006101A0936201B093630180916401909106
:1004C0006501A0916601B09167010196A11DB11D62
:1004D0008093640190936501A0936601B0936701D6
:1004E000BF91AF919F918F913F912F910F900FBE30
:1004F0000F901F9018953FB7F894809164019091E8
:100500006501A0916601B091670126B5A89B05C061
:100510002F3F19F00196A11DB11D3FBF6627782F0F
:10052000892F9A2F620F711D811D911D42E0660F68
:10053000771F881F991F4A95D1F70895CF92DF92B0
:10054000EF92FF92CF93DF936B017C010E947B02BD
:10055000EB01C114D104E104F10489F00E940A0600
:100560000E947B026C1B7D0B683E734090F381E020
:10057000C81AD108E108F108C851DC4FEACFDF9171
:10058000CF91FF90EF90DF90CF900895019739F0D1
:10059000880F991F880F991F02970197F1F7089507
:1005A000789484B5826084BD84B5816084BD85B54E
:1005B000826085BD85B5816085BDEEE6F0E0808115
:1005C00081608083E1E8F0E0108280818260808336
:1005D000808181608083E0E8F0E0808181608083B9
:1005E000E1EBF0E0808184608083E0EBF0E08081EB
:1005F00081608083EAE7F0E080818460808380818D
:100600008260808380818160808380818068808334
:100610001092C1000895FC01818D228D90E0805CD4
:100620009F4F821B91098F7399270895FC01918D2B
:10063000828D981731F0828DE80FF11D858D90E045
:1006400008958FEF9FEF0895FC01918D828D98178B
:1006500061F0828DDF01A80FB11D5D968C91928DA6
:100660009F5F9F73928F90E008958FEF9FEF0895A3
:1006700088EA94E0892B49F080E090E0892B29F00A
:100680000E94A80481110C9400000895FC01848D3F
:10069000DF01A80FB11DA35ABF4F2C91848D90E0AC
:1006A00001968F739927848FA689B7892C93A08987
:1006B000B1898C9180648C93938D848D981306C03E
:1006C0000288F389E02D80818F7D80830895CF9308
:1006D000DF93EC01888D8823C9F0EA89FB8980814A
:1006E00085FD05C0A889B9898C9186FD0FC00FB61C
:1006F00007FCF5CF808185FFF2CFA889B9898C915D
:1007000085FFEDCFCE010E944603E7CFDF91CF9169
:100710000895CF92DF92FF920F931F93CF93DF93B1
:100720001F92CDB7DEB76C01DC015B969C915B97A5
:100730005C968C915C97981307C05096ED91FC9154
:100740005197808185FD32C0F601038D10E00F5F67
:100750001F4F0F731127F02EF601848DF81211C070
:100760000FB607FCF9CFD6015096ED91FC91519749
:10077000808185FFF1CFC60169830E9446036981AC
:10078000EBCF838DE80FF11DE35AFF4F6083D60155
:100790005B960C935B975296ED91FC9153978081F9
:1007A0008062808381E058968C930DC0D601569666
:1007B000ED91FC91579760835096ED91FC91519784
:1007C00080818064808381E090E00F90DF91CF9101
:1007D0001F910F91FF90DF90CF900895BF92CF921D
:1007E000DF92EF92FF92CF93DF93EC016A017B01DE
:1007F000B22EE889F98982E08083411581EE58079D
:1008000061057105A1F060E079E08DE390E0A7015A
:1008100096010E941F062150310941095109569540
:10082000479537952795211580E1380798F0E88995
:10083000F989108260E874E88EE190E0A7019601E2
:100840000E941F06215031094109510956954795CB
:1008500037952795EC85FD853083EE85FF852083D0
:10086000188EEC89FD89B082EA89FB8980818061DC
:100870008083EA89FB89808188608083EA89FB899B
:10088000808180688083EA89FB8980818F7D808375
:10089000DF91CF91FF90EF90DF90CF90BF900895C0
:1008A0001F920F920FB60F9211242F938F939F9345
:1008B000EF93FF93E0917801F09179018081E091CD
:1008C0007E01F0917F0182FD12C0908180918101B3
:1008D0008F5F8F7320918201821751F0E091810127
:1008E000F0E0E859FE4F958F8093810101C080812F
:1008F000FF91EF919F918F912F910F900FBE0F90CD
:100900001F9018951F920F920FB60F9211242F93DC
:100910003F934F935F936F937F938F939F93AF9387
:10092000BF93EF93FF9388E691E00E944603FF9107
:10093000EF91BF91AF919F918F917F916F915F9157
:100940004F913F912F910F900FBE0F901F901895D0
:1009500088E691E00E940B0321E0892B09F420E056
:10096000822F089510926B0110926A0188EE93E035
:10097000A0E0B0E080936C0190936D01A0936E01B4
:10098000B0936F018EE391E09093690180936801C9
:1009900085EC90E0909375018093740184EC90E075
:1009A000909377018093760180EC90E090937901A9
:1009B0008093780181EC90E090937B0180937A01A1
:1009C00082EC90E090937D0180937C0186EC90E036
:1009D00090937F0180937E01109281011092820199
:1009E0001092830110928401089508950E94D0020C
:1009F0000E94F5040E942902C8E3D3E00E942D0260
:100A00002097E1F30E943803F9CFCF92DF92EF9263
:100A1000FF920F931F93CF93DF936C017A01EB0149
:100A2000E60EF71E00E010E0CE15DF0561F06991DB
:100A3000D601ED91FC910190F081E02DC601099560
:100A4000080F191FF1CFC801DF91CF911F910F91AE
:100A5000FF90EF90DF90CF9008956115710581F0C0
:100A6000DB010D900020E9F7AD0141505109461B13
:100A7000570BDC01ED91FC910280F381E02D09948C
:100A800080E090E008950C942D05DC01ED91FC913F
:100A90000190F081E02D09948F929F92AF92BF92C6
:100AA000CF92DF92EF92FF920F931F93CF93DF933A
:100AB000CDB7DEB7A1970FB6F894DEBF0FBECDBF9E
:100AC0007C01C42EE52FCB01D22E19A221E02D15D9
:100AD00010F02AE0D22E8E010F5D1F4F8D2C912C2D
:100AE000A12CB12C6C2D7E2FA50194010E941F0614
:100AF0008C2DD29E80191124015011098A3014F4D2
:100B0000805D01C0895CF8018083211531054105B4
:100B1000510521F0C22EE32FCA01E4CFB801C7016D
:100B20000E942D05A1960FB6F894DEBF0FBECDBF73
:100B3000DF91CF911F910F91FF90EF90DF90CF90B9
:100B4000BF90AF909F908F900895CF92DF92EF92D9
:100B5000FF920F931F93CF93DF93EC016A017B0108
:100B60002115310579F4E881F9810190F081E02DBA
:100B7000642FDF91CF911F910F91FF90EF90DF9045
:100B8000CF9009942A303105E9F477FF1AC06DE25D
:100B90000E9445058C0144275527BA014C195D096F
:100BA0006E097F092AE0CE010E944C05800F911F3B
:100BB000DF91CF911F910F91FF90EF90DF90CF9039
:100BC00008952AE0B701A601CE01DF91CF911F91D0
:100BD0000F91FF90EF90DF90CF900C944C059A010D
:100BE000AB01662757FD6095762F0C94A50521155E
:100BF000310541F4DC01ED91FC910190F081E02D93
:100C0000642F09940C944C059A01AB0160E070E0EC
:100C10000C94F7050895AA1BBB1B51E107C0AA1F3E
:100C2000BB1FA617B70710F0A61BB70B881F991F8D
:100C30005A95A9F780959095BC01CD010895A1E240
:100C40001A2EAA1BBB1BFD010DC0AA1FBB1FEE1F46
:100C5000FF1FA217B307E407F50720F0A21BB30B91
:100C6000E40BF50B661F771F881F991F1A9469F70D
:100C700060957095809590959B01AC01BD01CF0169
:100C80000895EE0FFF1F0590F491E02D0994F8945C
:020C9000FFCF94
:100C9200537461727465642E2E2E54657374696E7A
:100CA2006720416E616C6F6700436F6D706C657495
:100CB200656420416E616C6F670052616E6765000A
:100CC20020000A004C696768740000000000890374
:0A0CD20005050B0324031603670356
:00000001FF
